:030000000205AC4A
:0C05AC00787FE4F6D8FD75814C0200E277
:0B056F0012057AE4FF12057A12057AEB
:0A057A00C2998F993099FDC29922B1
:0A05B8007FBF12056F7FBF02057AB6
:0A05C2007FB012056F7FB002057ACA
:0A05CC007FB612056F7FB602057AB4
:0A05D6007FB312056F7FB302057AB0
:060513007D107F107E0048
:1005190020033720981C8E1B8F1C2098153008FA51
:10052900C208E51C451B6020E51C151C70EC151B59
:1005390080E8C298859908A805A608AF08EF250A9A
:0A054900F50AE43509F50922D20392
:010553002285
:10055400E4F509F50A7D0B7F407E011205190D7F34
:0B056400101E1205190D7F1002051972
:10039900C296C295D294850C16850D17E4F518F509
:1003A90019E51745166033E5171517700215167DFF
:1003B9001A120515200341AE18AF19E5132FF5825E
:1003C900E5123EF583E51AF00515E51570020514E9
:1003D9000519E51970CB051880C7C296D295D29434
:1003E9001205130D7F1012051920030CE50D2513B5
:0803F900F513E50C3512F512B5
:0104010022D8
:1004BF00850C16850D17E517451660107D0E120574
:1004CF001520033FE517151770021516E51745168A
:1004DF0060107D0F120515200329E51715177002FF
:1004EF001516E517451660127D1812051520031312
:1004FF00E517151770EC151680E81205130D7F1010
:03050F00120519B9
:0105120022C6
:10002600E4F512F513F514F515C205C203120554CD
:100036003003030200DE1204BF3003030200DEE5D4
:100046000B6403600CE50B640F70030200E1020011
:10005600DEE50E7006C207C2068023E50EB4010671
:10006600C207D2068018E50EB40206D207C2068081
:100076000DE50EB40306D207D2068002805AE50FBC
:10008600600280541205D61205543003028049E5F9
:100096000B640C703AE50D450C7027D205C294C26C
:1000A60095C296A20792973006047F8080027F0051
:1000B6008F1DE4F51E120220AF15AE1412040202C3
:1000C60005C2120399300302800E1205CC80B812C5
:0C00D60004BFE50B640F60031205B822A4
:040402008E168F17AC
:10040600E4FFFEC3EF9517EE95165050D2948F82F7
:100416008E83E0751800F519C29490555574AAF0AC
:10042600902AAA7455F090555574A0F0851E8285C1
:100436001D83E519F0851E82851D83E05480FDE548
:100446001954806D7001E46004E030E5E8051EE5AE
:0C0456001E7002051D0FBF00010E80A7E4
:010462002277
:1002200090555574AAF0902AAA7455F090555574BB
:1002300080F074AAF0902AAA7455F0AE1DAF1E8FFC
:10024000828E837430F0AE1DAF1E8F828E83E020CD
:10025000E70CAE1DAF1E8F828E83E030E5E8631D94
:100260004090555574AAF0902AAA7455F0905555AF
:100270007480F074AAF0902AAA7455F0AE1DAF1ED7
:100280008F828E837430F0AE1DAF1E8F828E83E01E
:1002900020E70CAE1DAF1E8F828E83E030E5E86351
:0302A0001D4022DC
:03000300020009EF
:0100090032C4
:03000B00020006EA
:03000600D20832EB
:0300130002000ADE
:01000A0032C3
:03001B0002000ED2
:01000E0032BF
:0300230002000FC9
:01000F0032BE
:1000E200C296D295C294900000E4F0C2051201813A
:1000F200758A8D758C8D758922758BFF758DFF4381
:100102008780759840D28ED29CE4F5A8C28C1205E5
:100112009975A882D28C300805C2081204633098FF
:1001220002803E209006C207C2068019209106C2B4
:1001320007D2068010209206D207C20680072093BB
:10014200D5D207D206E4F5A8C28C12031F75A88285
:10015200D28C300807C2081202A380F63004F38062
:10016200A875A882D28C120584C296D295D2941216
:0F0172000026200394300591C205120181808A76
:10018100C296C295C294C297900000E0F52DA3E0FB
:10019100F52EA3E0F52FA3E0F530A3E0F531A3E0C0
:1001A100F532A3E0F533A3E0F534908000E0F535B6
:1001B100A3E0F536A3E0F537A3E0F538A3E0F53980
:1001C100A3E0F53AA3E0F53BA3E0F53CD29790001C
:1001D10000E0F53DA3E0F53EA3E0F53FA3E0F540E7
:1001E100A3E0F541A3E0F542A3E0F543A3E0F54424
:1001F100908000E0F545A3E0F546A3E0F547A3E0D4
:10020100F548A3E0F549A3E0F54AA3E0F54BA3E0E7
:0F021100F54C75272D75283575293D752A452221
:10031F0030070D300605752245801075223D800B84
:10032F00300605752235800375222D852227E4F5C9
:10033F0026752301C294C295C296A20792973006E2
:10034F00047F8080027F008F1DE4F51EF52BF52CB6
:10035F00E51E2408F582E4351DF583E0F52BE51E37
:10036F002409F582E4351DF583E0F52CE51E240AFA
:10037F00F525E4351DF524D296900000E4F0D294D3
:0A038F00F0D295F0C294F0C20422EF
:1002A300E52C452B6068E52C152C7002152BC296A6
:1002B300C295C294A2079297852582852483E0FF85
:1002C3000525E52570020524D295900000EFF0D2B4
:1002D30096A2079295A2069294E4F0C296D295D282
:1002E30094E523F4F0D296A2079295A2069294A8DD
:1002F30027E6F0E526045407F526E52660090527D9
:10030300E52325E0F5232285222775230122D20444
:0B031300C296D295C294900000E4F066
:01031E0022BC
:10058400D296D295C294900000E4F0C295F0D29431
:05059400F0D295F022F9
:1005990075272D75283575293D752A45E4F5267584
:0305A90023012209
:10046300D296D295C294900000E4F0C295F0D29453
:10047300F0D295F0C296E523F4F0D296A82AE6F0DE
:10048300C294A829E6F0C295A827E6F0D294A8283A
:10049300E6F0E526045407F526E526600FE5232557
:1004A300E0F523052705280529052A22752301756B
:0C04B300272D75283575293D752A452236
:00000001FF
